:1000000000300020CD0100000101000001010000CE
:1000100001010000010100000101000001010000D8
:1000200001010000010100000101000001010000C8
:1000300001010000010100000101000001010000B8
:1000400001010000010100000101000001010000A8
:100050000101000001010000010100000101000098
:100060000101000001010000010100000101000088
:100070000101000001010000010100000101000078
:100080000101000001010000010100000101000068
:100090000101000001010000010100000101000058
:1000A0000101000001010000010100000101000048
:1000B0000101000001010000010100000101000038
:1000C0000101000001010000010100000101000028
:1000D00001010000010100000101000051010000C8
:1000E0000101000001010000010100000101000008
:1000F000024B1A684FF480421A6070470C0500509A
:100100007047064A136823F001031360D2F80032E7
:1001100043F40003C2F80032704700BF0071024090
:10012000074A136823F400031360064B1A68064A53
:100130001A60064B1B680BB100201847704700BFC0
:10014000007302402876024000300020003000207A
:10015000154B1B68012B1AD1144B1A68110516D5C3
:10016000134A1268D20712D51A6822F400621A6084
:10017000A3F580731A6822F480021A601A6842F0AC
:1001800001021A600B4A136843F0010313600A4B23
:100190001B68DB0701D5FFF7B4BF084B1B68012BB9
:1001A00001D1FFF7BDBF7047587102400074024093
:1001B0002401004004750240007102405C7102405D
:1001C000C0E900237047C0E90023704708B500F07C
:1001D00073F800F085F800F03DF800BF044A13689A
:1001E000000223F4E06300F4E060184310607047FD
:1001F00038070050C36810B50446DBB9134B1A68C2
:1002000042F001021A601A6842F002021A601A688B
:1002100022F440321A602079FFF7E0FF2078FFF7E0
:10022000DDFF207CFFF7DAFF094B1A684FF48042AC
:100230001A6010BD012BEED1044B1A6822F00102A6
:100240001A601A6822F00202E4E700BF3807005083
:10025000080500507FB51422002101A800F054F8D1
:1002600001A8FFF7C7FF0F4A1368DB07FCD50E4A4A
:10027000136843F0010313604FF08042136843F0AA
:100280000103136002F51C3202F54072136843F457
:1002900080031360054B064A1A60064B80225A60A1
:1002A000FEE700BF1C010040007502400030002046
:1002B000F100000000E100E00649074A10B5074CD4
:1002C000521A0023934203D21859C8500433F9E755
:1002D00010BD00BF003000200030002034030000BB
:1002E0000749084B5B1A23F00303002210B50433BF
:1002F0001446501804329A4201D00460F9E710BD48
:10030000003000200430002002440346934200D114
:10031000704703F8011BF9E7F8B500BFF8BC08BC4B
:100320009E467047F8B500BFF8BC08BC9E467047B3
:0403300000000000C9
:00000001FF
